:1000000000308A0004280000FF238316900000308F
:100010008A001E2826308400000803191D2801309C
:10002000A100A001A00B1228A10B11284A30A000AA
:10003000A00B18281B28800B0F28622803081F39E3
:1000400083001F1383161F109F101F119F1107306D
:10005000831299001F1383161F149F101F119F11E5
:100060001F169F161F1383129F171F140030A10025
:100070001F08F33921049F000230A000A00B3E2886
:10008000412800009F149F18432883161E088312DE
:10009000A4001E08A5002508023C03185B28FF3AAF
:1000A000031D56282408203C03185B28831685125C
:1000B000831285165F2883168512831285123230CB
:0800C000A6000A28362863009F
:02400E00E43F8D
:00000001FF
;PIC12F675
;CRC=E9C5  CREATED="09-jul-20 16:02"
