:1000000000308A0004280000FF238316900000308F
:100010008A002C2883160510831205100830A100D1
:1000200011280000A1172228A113A50C03180514FC
:10003000031C0510211722282113A10B15282028A5
:10004000000005141C308400840B24282728A11BE1
:100050001428211B1C28CD2803081F398300831670
:100060000510831205141F1383161F109F101F11F4
:100070009F11073083129900831605158312051905
:10008000CD283130A000A00B432846288316051246
:1000900083120516831605158312051D522801309B
:1000A000A4005328A4011D30A000A00B55285828F7
:1000B000000083160512831205128316051583129C
:1000C000051D64280230A4071D30A000A00B66287F
:1000D000692800008316051283120516831605157C
:1000E0008312051D75280430A4071D30A000A00B45
:1000F00077287A28000083160512831205128316CA
:1001000005158312051D86280830A4071D30A000A0
:10011000A00B88288B280000831605128312051671
:10012000831605158312051D97281030A4071D306E
:10013000A000A00B99289C280000831605128312AA
:100140000512831605158312051DA8282030A40763
:100150001D30A000A00BAA28AD28000083160512B0
:1001600083120516831605158312051DB928403024
:10017000A4071D30A000A00BBB28BE2800008316DA
:10018000051283120512831605158312051DCA2850
:0E0190008030A4072408A5000A283C2863003C
:02400E00A43FCD
:00000001FF
;PIC12F675
;CRC=CAB3  CREATED="07-jul-20 18:06"
