:1000000000308A0004280000FF238316900000308F
:100010008A003328623400346134003483160515B5
:100020008312051911280830A000A501A017262861
:10003000A0132628031005190314A50C2017262841
:100040002013A00B1A282508A10032281C30A01B61
:100050000730A100A10B2A280000A01B1828201B94
:1000600020281A28462803081F3983008316051004
:10007000831205141F1383161F109F101F119F1149
:10008000073083129900051962280E282108A40060
:100090000030A3000A302402031D5528A308031DC5
:1000A000552883168511831285150030A3000C3066
:1000B0002402031D6228A308031D622883168511EC
:0800C00083128511432863003F
:02400E00843FED
:00000001FF
;PIC12F675
;CRC=DCBB  CREATED="02-jul-20 12:36"
